:020000040800F2
:10000000401E00206D1F00084B580008591F0008B3
:10001000591F0008591F0008591F00080000000060
:10002000000000000000000000000000A11F000808
:10003000591F0008000000005D210008113600086B
:10004000D5210008D5210008D5210008D5210008B8
:10005000D5210008D5210008D5210008D5210008A8
:10006000D5210008D5210008D5210008D521000898
:10007000D5210008D5210008D5210008D521000888
:10008000D5210008D5210008D5210008D521000878
:10009000D5210008D5210008D5210008D521000868
:1000A000D5210008D5210008D5210008D521000858
:1000B000D5210008D5210008D5210008D521000848
:1000C000D5210008D5210008D5210008D521000838
:1000D000D5210008D5210008D5210008D521000828
:1000E000D5210008D5210008D5210008D521000818
:1000F000D5210008D5210008D5210008D521000808
:10010000D5210008D5210008D5210008D5210008F7
:10011000D5210008D5210008D5210008D5210008E7
:10012000D5210008D5210008D5210008D5210008D7
:10013000D5210008D5210008D5210008D5210008C7
:10014000D5210008D5210008D5210008D5210008B7
:10015000D5210008D5210008D5210008D5210008A7
:10016000D5210008D5210008D5210008D521000897
:10017000D5210008D5210008D5210008D521000887
:10018000D5210008D5210008D5210008D521000877
:10019000D5210008D5210008D5210008D521000867
:1001A000D5210008D5210008D5210008D521000857
:1001B00053B94AB9002908BF00281CBF4FF0FF31CE
:1001C0004FF0FF3000F00CB8ADF1080C6DE904CE33
:1001D00000F010F8DDF804E0DDE9022304B0704718
:1001E000704700BF034613F8012B002AFBD1181AF1
:1001F000013870472DE9F0478C468E46089E15461B
:1002000004461946002B40F0D080724547D9B2FA17
:1002100082F74FB1C7F120030EFA07FC20FA03F36F
:10022000BD4043EA0C0CBC404FEA154EA8B2BCFBE3
:10023000FEF8230C0EFB18CC08FB00F943EA0C4334
:10024000994528D9EB1808F1FF3204D2994502D913
:10025000A8F102022B44A3EB0903A4B2B3FBFEFCFA
:100260000EFB1C330CFB00F044EA0344A04214D9FB
:100270002C190CF1FF3304D2A04202D9ACF10203D5
:100280002C44241A43EA02401EB1FC40002334608F
:100290007360BDE8F0874246DDE76346F1E7002A78
:1002A00079D0B2FA82F3002B3FD01946C1F1200376
:1002B00002FA01F52EFA03F20EFA01FE20FA03F318
:1002C00043EA0E034FEA154E00FA01F4B2FBFEFCBE
:1002D000AFB20EFB1C201A0C0CFB07F842EA0042DE
:1002E00090455AD9AA180CF1FF3004D2904502D992
:1002F000ACF102002A44A2EB08029BB2B2FBFEFC66
:100300000EFB1C220CFB07F743EA02439F4246D92F
:10031000EB180CF1FF3204D29F4202D9ACF1020279
:100320002B44DB1B42EA004202E0AEEB0203012257
:100330004FEA154EAFB2B3FBFEFC200C0EFB1C3394
:100340000CFB07F840EA034398452AD9EB180CF157
:10035000FF3004D2984502D9ACF102002B44A3EB44
:100360000803A4B2B3FBFEFC0EFB1C330CFB07F727
:1003700044EA0344A74216D92C190CF1FF3304D2E6
:10038000A74202D9ACF102032C44E41B43EA00402B
:100390000F46114678E71F2188E76046ABE76246C3
:1003A000BFE76046DBE76346EFE7734506D916B95A
:1003B000002108466DE7C6E9000EF9E7B3FA83F7B6
:1003C00087B9734501D3824207D8841A6EEB0303C1
:1003D00001209C461EB900215BE73846FAE7C6E9D2
:1003E000004CF8E7C7F1200CBB4022FA0CF51D4386
:1003F00020FA0CF12EFA0CF30EFA07FE41EA0E0178
:100400004FEA154900FA07F4B3FBF9F81FFA85FE25
:1004100009FB18300B0C08FB0EFA43EA00439A451F
:1004200002FA07F240D9EB1808F1FF3004D29A45DE
:1004300002D9A8F102002B44A3EB0A0389B2B3FB53
:10044000F9F809FB183308FB0EFE41EA03418E451B
:100450002CD9691808F1FF3304D28E4502D9A8F1CE
:100460000203294443EA0040A0FB0298A1EB0E01DD
:100470004145CE46434602D306D14C4504D2B9EBA2
:10048000020E68EB05030138002EA4D0B4EB0E0277
:1004900061EB030101FA0CFC22FA07F34CEA0303B7
:1004A000F940C6E9003196E74046C5E74346D9E73B
:1004B000014804F045BD00BFAC70000808B5024813
:1004C00004F03EFD002008BDBB70000810B5084CCC
:1004D000084A23780848D25C0A70194604F030FDB7
:1004E0002378013303F00F032370002010BD00BFF9
:1004F0003509002054000020C570000810B5084CD4
:10050000084A23780848D25C0A70194604F018FD9E
:100510002378013303F00F032370002010BD00BFC8
:100520003509002054000020EC70000808B5044B89
:10053000044801221A7004F003FD002008BD00BF2A
:10054000340900201371000838B5051E04460E4812
:1005500003691B7818BF0125C3F34013AB428368BE
:100560004FF0200114BFDB681B699847074B08490F
:100570001D705D70074B0848002C08BF1946BDE888
:10058000384004F0DDBC00BFA06900085400002022
:10059000287100082B7100082F71000838B5144B22
:1005A000144D1A780C464AB101F00F01002212488E
:1005B00029701A7004F0C4FC002038BD0A460F48A8
:1005C000297804F0BDFC2B7823B1022B0BD00C4A08
:1005D000D45402E02046FFF7B7FF2B78013303F035
:1005E0000F032B70E8E7074804F0AAFCF5E700BF0B
:1005F00034090020350900203871000856710008C0
:10060000540000207371000838B5284804F098FCA5
:100610004221274804F094FC264804F091FC264827
:1006200004F08EFC254804F08BFC254D284605F08F
:10063000E2FE20B9234804F083FC002038BD224CA0
:10064000204605F0D8FE08B92048F4E72269A168E1
:10065000136823F0200313600B684FF4C0220521B8
:1006600020469847011E03DA194804F069FCE4E7C4
:100670000020FFF769FFAB68DB6833B115492846F6
:100680009847011E04DA1448EFE76FF05701FAE7C4
:100690001248134C04F054FC00214CF2503005F089
:1006A000A1FF61780F4804F04BFCF5E78F7100085B
:1006B000C4710008E0710008FD7100081A7200089A
:1006C000106A000836720008A06900085672000817
:1006D0007C72000800000020A6720008CD7200089D
:1006E00054000020EC72000808B5024804F028FC11
:1006F000002008BD0C7300082DE9F04F91B084076D
:10070000009302F004030293C2F3C20303F1010356
:10071000DDF868A0039205460E46059340F09D81E2
:10072000041D00284AD101F00706341DC6F1080651
:10073000009B00275A1E4FF004084FF0FF3301932F
:100740000497B946BB4643460DB100992160059810
:10075000002800F3D78090480099814203D38F4846
:100760008142C0F0CF80039911F0020CA4EB050088
:1007700040F0D680B9F10F0F00F2CF80002D00F0CD
:10078000D68009F140010DEB010EC0F387000199FD
:100790000EF8200C0EF8101CBCF1000F00F0C38006
:1007A00060F07F000EF8200C013709F10109C5F156
:1007B0000801043406914FF6DA7E8CE00729B7D899
:1007C0006FF01B0011B0BDE8F08F7A285BD84B2882
:1007D0000FD8472857D829282ED8252850D052D8A6
:1007E000202818BF23280CBF4FF0010B4FF0000B3F
:1007F00071E04C382E2846D8DFE800F06D454545BD
:100800004545454545454545484545454545454595
:1008100045564548485656566D486A456D451848F0
:100820001845457F7C48454548457C0000204FF0F1
:10083000000B4FF0040835E02A38C0B2012101FA5C
:1008400000F010EA0E0F46D110F0625C2CD110EAD5
:10085000010B40D06046013C4444B4FBF8F408FB73
:1008600004F425B1A3EB050CA444B445A8D8002892
:1008700070D00599013905915AF8041B009163E77E
:100880000199013901914FF0000B24E012F8010C9D
:100890006C2834D112F8023C00206C2B8346C8D15E
:1008A0004FF008084346D6E70AF1070A2AF0070A7C
:1008B0000734FAE802BC24F0070435B10698204456
:1008C000B0423FF67DAFC4E900BC08344FF0000BE6
:1008D0004FF00808434612F8010F002853D0BBF12F
:1008E000000F7FF472AF2528F5D1019B01330193EE
:1008F0004FF0010B4FF00408ECE7584697E7002053
:100900008346A8E7039988077FF551AF601B4FF036
:10091000010CB0F5007FFFF42DAF6FF0150051E72B
:100920004FF0000CF5E70498013004903DE7BCF16E
:10093000000F01D0013638E70298023600287FF414
:1009400034AF0098CDE90632FFF74CFCDDE9063202
:1009500006442AE7042B08D10AF1040015B1DAF89D
:100960000010216004348246B5E70AF1070323F042
:10097000070303F1080A1DB1D3E90001C4E900012E
:1009800008340823A7E7631BB3F5806FC5D23DB9D0
:10099000A6F10804E01815E720680008EC7D0008BF
:1009A000029A28609B082B709DF81030AAB1EB705A
:1009B000AF702FB108A80022C5F1010C91450ED1EE
:1009C000C5F101030DF120084FF0000A01930DF16C
:1009D000300BD14512D1601BF4E66B70E8E710F8DC
:1009E000013B190608D50CEB040EB64503F07F0356
:1009F0003FF6E6AE04F8013B0132DFE71FB198F99C
:100A00000020002A17DB029BD3B11AF80B2004F850
:100A1000012B0022019B18191044B0423FF6D0AEC2
:100A200098F8000004F8010B00990392204605F0A5
:100A300072FE039A14440AF1010A08F10108C8E79A
:100A400098F8002055F822300093029B45F8223098
:100A50000098FFF7C7FB421CDCE76FF00D00B1E622
:100A60002DE9F04F97B000AFC7E90A3205468A4634
:100A700049B903784678807800EB830028445645CE
:100A800024D8A0EB050AD7F8803095F80280D7F873
:100A9000804003F00103FB61EB787B62B8F1000F4B
:100AA0000CBF002404F001041BB1D7F880309A0772
:100AB00015D4A4B9FB6A1BB1BA6A514628469847B7
:100AC000564630465C37BD46BDE8F08F441C204694
:100AD000FFF788FB013020440AF1010ACFE7D7F87D
:100AE0008030C3F3C0033B622B78BB619B003B614A
:100AF0006B687B61BB6905EB830BFB6A002B77D1CD
:100B00005646D844BCB11C461BF8013B55F823009F
:100B1000FFF768FBD7F88430013043B1D7F888304D
:100B2000A34282BFD7F8843023F814000134C345B0
:100B30000644E9D1D846D7F8803013F0050F0CBF32
:100B40004FF0020B4FF0010B4FF000097B6A994503
:100B5000B7D298F8013055F823A0AE4B9A4508F16A
:100B60000208C0F04B81AC4B3A6A9A452CBF002377
:100B700001230AB318F8021C7869FB6204F0C1F97A
:100B8000FB6AC8B1EA468AB06A46A44B05937B6902
:100B9000CDE906314FF40073ADF82030A04B42F898
:100BA000103FA04800234FF4125100F03BFC023EDE
:100BB000D54609F10109C9E723B1FB6933B9A6EBB1
:100BC0000B06F6E7D7F880309B07F2D55046FFF7C3
:100BD00009FBD7F884304BB1D7F888309C423FBF2F
:100BE000D7F88420431C22F8143001340644E0E78F
:100BF000002C69D1B8F1000F6CD0D7F880305807BD
:100C00006BD5C14607F148004246594605F083FDC1
:100C10000BEB0803FB6000220233796A8A425ED341
:100C2000D7F8802095F801B0F969920704EB0B031F
:100C3000DBB254BF4FEA59020022002940F0A680DF
:100C4000D7F8801011F0040F14BF494600216B70D3
:100C5000A970EA703969BA6AFB6A28469847061E85
:100C6000FFF62FAFBB692B707B6AEB704946BA6AFF
:100C7000FB6A85F801B085F8028007F148009847C3
:100C8000B0F10009C0F2B6803B697A6A786A03EB7A
:100C90004201FB68BA6A414403EB4000AAEB010140
:100CA000FB6A98470028C0F2A780B14409EB000610
:100CB0004FF0000B07F1380AA34569D30021BA6A47
:100CC000FB6A08469847FCE6444607F138004FF0B7
:100CD000000999E74446C1469AE7A14698E713F808
:100CE000016CDFF830C155F8260013F8021C60458E
:100CF000C0F08A80DFF820C16045386A2CBF4FF011
:100D0000000B4FF0010B38B17869C7E9013204F0EC
:100D1000F8F8D7E90132F0B9BBF1000F1ED0F9693C
:100D200049B1611C04F1280007F13004041904F8EA
:100D3000206CCCB20FE0D7F8801049070BD509F131
:100D4000280007F1300C09F1010100EB0C0909F84A
:100D5000106C5FFA81F9013202335EE7D7F8800048
:100D60008007DED409F1280C07F1300EF44409F1B4
:100D700001000CF8101C07F1580151FA80F009F13C
:100D800002095FFA89F900F8106CE4E700215EE7D8
:100D90001BF80A3087F8373055F82390D7F884309D
:100DA0002BB3D7F888309B4521D2D7F8843033F85D
:100DB0001B80BA6AFB6A012107F1370098470028B7
:100DC0001ADB0644B8F1000F06D14846FFF70AFACD
:100DD00000F101081FFA88F8BA6AFB6A41464846E2
:100DE0009847002808DB06440BF1010B64E74FF03D
:100DF0000008DEE74E4664E6064662E63B6A002BE4
:100E00003FF4E0AE0023B5E6386A0028A6D04FF0E4
:100E1000000B79E720680008EC7D000847730008A4
:100E200004000001886D0008014B1860704700BF86
:100E30000C000020034A536823F002035360002093
:100E4000704700BF002004E008B54168054883688A
:100E50001B680C311BB1984700EAE07008BD6FF0C9
:100E60005700F9E7C0680008062810B502D9002429
:100E7000204610BD044B53F82040204605F0BBFA35
:100E80000028F5D1F3E700BFCC6E0008134B1A68B9
:100E900042F4007282B01A601A6842F480621A60EA
:100EA0001A6842F480721A600D4B0E4A1A600E4A9C
:100EB000536843F0010353600C4B9A6D42F080522B
:100EC0009A659B6D0A4A03F080530193019B9368D6
:100ED00043F48043936002B0704700BF002002409B
:100EE000440000200024F400002004E00010024030
:100EF000007000402DE9F047DFF8548004460746B3
:100F00004FF0010994FAA4F5B5FA85F509FA05F34D
:100F10002E0108EB05156FEA030A24EA03042B7B74
:100F200063B158F806301B696BB9464404227368F4
:100F30002846196807EA0A0704F049FB002CE1D1AA
:100F40003846BDE8F087284698470028F6D1ECE7F8
:100F5000086E000810B50F490F4888B0002205F050
:100F6000CEFB00220023CDE9062300240E23CDE989
:100F70000334CDE90144094B094900944FF4407210
:100F8000084802F05BFF0849064805F064FA20466D
:100F900008B010BDAD0F000868050020CD12000894
:100FA00040090020E00000207C740008014802F0A5
:100FB00039BE00BFCC0000202DE9F0478046204814
:100FC0000F4604F0DCFA0646002832D000252846F9
:100FD000BDE8F087237B83B12368DB680BB1204633
:100FE0009847636883F8069023681B69CBB96368E8
:100FF00004221968204604F0EAFA013610345445F8
:10100000E8D3B8F1000FE2D0002DDFD02846FFF77B
:1010100071FF0546002FF7D00021642005F0E2FAA9
:10102000F2E7204698470028E1D009FA06F31D436D
:10103000E3E7044CDFF810A005464FF00109DEE7B6
:10104000D0070020086E0008186E0008014B53F806
:1010500020007047FC6E000808B5034608462BB117
:10106000044A136000F050FC002008BD6FF015002A
:10107000FBE700BF1000002010B5044C237813B923
:10108000034802F0CFFD0123237010BD3609002074
:10109000CC00002010B504460B4804F070FA5CB197
:1010A000BFF35B8F094B53E8001F013943E800127F
:1010B000002AF8D1BFF35B8F054803F0E5FB054834
:1010C000BDE8104002F0AEBDC8070020CC070020EC
:1010D00068050020CC000020064BBFF35B8F002288
:1010E00053E8000F43E800210029F9D1BFF35B8FDB
:1010F000704700BFC807002070B5FFF7EDFF084C30
:10110000084E0546B44200D370BD63685B792BB1CD
:1011100023685B6813B12946204698471034F1E7ED
:10112000086E0008186E000810B5044C04492046EB
:1011300004F013F8034B1C6010BD00BF90000020AA
:10114000E86E0008C00700200D4A0E48002310B5C5
:1011500013700D4A13600D4A4FF47A711360FFF754
:101160007BFFFFF7E1FF0A4B0A4918468B4200D389
:1011700010BD1A1A5C681211013222711033F5E7A2
:101180003709002099550008C8070020CC07002027
:10119000086E0008186E000801460022014800236E
:1011A00003F0FCBF90000020014804F093B800BF9A
:1011B00090000020024B0146186804F0E6B800BF1A
:1011C000C0070020014804F01BB900BF90000020B8
:1011D00070B5274B1B78002B47D0FFF7E5FF04467F
:1011E00000283FD1234B244D1B68002B12DD05F056
:1011F0003EFA0A220023FEF7DBFFD5E90032C01ACF
:1012000040F2E93361EB0201984271F1000101D330
:10121000FFF772FFD5E9003213F57A7342F100024D
:10122000C5E900320CB3BDE87040FFF7CBBF6B6877
:101230005B7923B12B6821461B68284698471035F7
:10124000B542F4D32046FFF7B5FFBFF35B8F0B4BDE
:1012500053E8001F013943E80012002AF8D1BFF318
:101260005B8FBFE7064D074EEAE7002070BD00BF69
:1012700036090020C807002060050020CC070020A8
:10128000086E0008186E000870B50D4D297861B918
:101290000120FFF791FE0B4C0B4EB44206D3FFF733
:1012A00097FF0028FBD101232B7070BD63685B7929
:1012B0001BB1236820469B6898471034EDE700BFB8
:1012C00037090020086E0008186E000800212DE97B
:1012D000F8430846FFF770FE044648B34FF4FA7827
:1012E0004FF0000900F088FF1A4B1B4A1B5813608F
:1012F00033B11A4B1B68092B02DD194802F092FC2E
:10130000184F002544B12046FFF7F4FD044618B9F4
:101310004FF0FF384FF0FF39FFF75AFF064628B964
:10132000B5B90F4842464B4602F0B0FC3546E9E7F6
:101330004FF0FF384FF0FF39D4E72B689B691BB1A2
:1013400000221146284698471035BD42F5D3E8E7FC
:10135000054DFAE708000000C4070020CC07002074
:10136000CC000020186E0008086E000813B518485D
:1013700004F005F9174B1B7873B1EFF311841023B8
:1013800083F31288BFF36F8FFFF722FF84F3118876
:10139000BFF36F8F02B010BD0F4B1B68002BF9D04D
:1013A00050B900220023CDE900230C4842F210720C
:1013B000002303F041FAEDE70928EBD1074803F0D9
:1013C00063FA074802B0BDE8104002F02BBC00BF32
:1013D000CC07002037090020C40700206805002042
:1013E000CC00002010B5064B1B68044698472146E8
:1013F000A060044803F04FFFBDE81040FFF7B6BF00
:101400001000002090000020044A054B9B1AB1EB0D
:10141000D30F34BF52F8310000207047886D0008A8
:10142000086E00082DE9F04F8FB004AFC1F34A26D3
:10143000B8600D4690467B600C0D002E61D04FF0D9
:1014400000090A234FF0040B07F1140AFE60C7E9F4
:101450000799C7F824900093CDF808B0CDF804A000
:1014600007F11C03F9684A464046FFF7F9FAB0F560
:10147000006F03461CD36C468AB0D8F8041004AB46
:101480002448C3E9050140F2FF71D9611A464FF4BF
:1014900000711984204B42F8103F20484B464FF40E
:1014A0001251FFF7BFFFA5462C37BD46BDE8F08FB0
:1014B000C0F30A0604F11700184420F00700800862
:1014C0003B60FFF769FE66F35325044680B13B6835
:1014D000134A00F11001C7E90839F961CDE901AB00
:1014E0000A230093F96807F11C034046FFF7B8FA96
:1014F00066F353257B68B9682A46204604F087F8CE
:10150000D2E704F1170020F007008008FFF744FE3F
:101510000446EDE79174000804000001B86D00086E
:10152000E15500082DE9F04F87B0DDE9127ADDE9D9
:10153000106B0546884614469946BFB11021CDF878
:1015400000A03B465A460020CDF814A0FFF7D4F87F
:10155000B0F5006F01460BD3194A1A4840F2FF73E9
:10156000022107B0BDE8F04F04F0AAB8394638466A
:1015700004F0070305F00704E40044EA831444EA96
:10158000402444EA065406F11700084420F00700FE
:1015900080080391FFF700FE054640B13FB1039973
:1015A000CDF800A03B465A461030FFF7A5F84B4651
:1015B00022464146284607B0BDE8F04F04F027B860
:1015C000D0740008B86D0008406820B1034BC01A01
:1015D00040F3CF0070474FF0FF307047886D000830
:1015E0000EB403B503AB014653F8042B0448019332
:1015F00000F088FF02B05DF804EB03B0704700BF55
:101600000B570008CA0605D48B064CBF0249034994
:10161000FFF7E6BF704700BF0975000808750008AE
:101620002DE9F04F8BB09946179B0793DDE918A37E
:101630009DF858801A9F069204460D460593B8F10E
:10164000000F00F0BF80844B13F80830089307F4B4
:101650008073099303F0B9FF07F0020B02460028DC
:101660007DD07E492046FFF7BBFF0646BBF1000F49
:1016700008D017F0440F74D179492A462046FFF765
:10168000AFFF064407F0010353B1764B764953F898
:101690002820764B2046002A08BF1A46FFF7A0FFF5
:1016A00007F48073002B07F0080318BF4FF0000900
:1016B000002B00F082806E4B6E4953F828202046A4
:1016C000FFF78EFF0546069B2BB16B491A46204655
:1016D000FFF786FF0544B9F1000F0DD0089B002BE2
:1016E0006ED06649664BB8F1040F18BF19464A46DA
:1016F0002046FFF775FF054462483544079B1BB140
:101700006149224603F0CCFB059B002B00F0908042
:10171000DDF814903946B9F1100F204628BF4FF07C
:101720001009FFF76FFF0026B54252DC0026334652
:101730001AF8032055492046FFF752FF0136102EB4
:101740004DD0710703D152492046FFF749FF4E455E
:101750003346EDD34F492046FFF742FFEEE70646FA
:1017600084E74D4B186800288BD04C4B4FF47A7BA4
:101770001B68B5FBF3F54FF46163B5FBF0F100FBBB
:1017800011550BFB05F54FF03C0CB1FBF3F203FBDD
:101790001211B5FBF0FEB1FBFCF300FB1E550CFB78
:1017A00013110BFB05F50091B5FBF0F53C49CDE9B4
:1017B00001E52046FFF714FF63E707F0080582E71D
:1017C0002F4994E7B9F1010F0CBF2E483548454623
:1017D00094E72F492046FFF703FF0136A4E732497B
:1017E00020460026FFF7FCFE33461AF803202F4957
:1017F000A2F120035F2B28BF2E222046FFF7F0FE28
:101800000136102E0DD0720703D121492046FFF773
:10181000E7FEB1453346E8D81D492046FFF7E0FE14
:10182000EEE7059BB3EB0903CA4405937FF470AF61
:10183000B8F1000F0AD0FB0704D50C4A0A4920462C
:10184000FFF7CEFE39462046FFF7DCFE20460BB000
:10185000BDE8F04F03F04CBFC67D000819750008C5
:101860001D7500080C6F0008427500080B75000814
:10187000206F0008457500084B75000810750008BA
:10188000147500080B570008052500084F7500085F
:101890005775000855750008D8070020D4070020A8
:1018A0002675000841570008597500085B75000847
:1018B00073B542F20F738B4228BF0B4605680F4A7F
:1018C00004460521684603F00FF863680C495B681D
:1018D00006460B22284603F0FDFE63683246694641
:1018E00028465B6803F0F6FE636806495B681B22C6
:1018F000284603F0EFFE02B070BD00BF437600083B
:10190000BA7D00089E7D0008074A0021012390420D
:1019100006D8064A01B901231360054B18607047C9
:1019200040085B000121F2E740420F00D40700208D
:10193000D8070020F8B5074F0D4604464618B442B4
:1019400001D12846F8BD14F8011BBB6801485B684B
:101950009847F4E7D8690008014B036000207047FE
:10196000686F000880B505460E461746984602F097
:10197000F7FC034600F040FCDFF81890044649F8F5
:101980000030424630463946A84754F8090000F076
:10199000CFFB00BF0800000008B50348034A002140
:1019A000121A03F04AFF08BDE00000203C090020A5
:1019B0000748084A084908B5121A03F040FF0748CB
:1019C000074A0849BDE80840121A03F038BF00BFB3
:1019D00000000020DC000020EC7D0008000000205A
:1019E00000000020EC7D00082DE9F047064600AF1E
:1019F0000C46002936D0E9468AB0D1E90012A36826
:101A00006D462148E8464FF0050ACDE90501CDE9CC
:101A1000072348F810AF1D48424600234FF42151D8
:101A2000FFF700FDCD46D4E903126369AD461848BF
:101A3000C5F810A0C5E90501C5E90723134800232F
:101A400042464FF42151FFF7EDFCCD46E369114AC0
:101A50000E48012103F034FEA3690F4A0B4801210F
:101A600003F02EFE012E07D1EFF305830B4A074842
:101A7000103B314603F024FE2146304601F046FF7C
:101A8000BD46BDE8F08700BF98750008D86D000816
:101A9000C7750008F675000805760008337600085B
:101AA00030BFFFF7FDBF00BF2DE9F0410B4EDFF85F
:101AB000308006EB0807CC1B054632460949204614
:101AC00004F029FEA01942460021083C04F031FE32
:101AD0002C6707F10800BDE8F08100BF000000009E
:101AE00004000000186E000810B5204C2049214861
:101AF00003F0B2FEA36A990136D51E481E4903F0D1
:101B0000ABFE1E20A36ADA0104D51A481B4903F074
:101B1000A3FE1F20154CA36A1B0304D515481849C2
:101B200003F09AFE2120A36A590304D511481549F0
:101B300003F092FE22200D4CA36A9A0304D50D48AF
:101B4000114903F089FE2320A36ADB0304D5094869
:101B50000E4903F081FE2420044A936A6FEA03438E
:101B60006FEA1343936210BD1D20CBE700ED00E048
:101B700046760008D86D00085E7600087176000889
:101B80008B760008A9760008CE760008E876000873
:101B900070B506460D46284C2849294803F05CFEDE
:101BA000A36AD9043CD52648264903F055FE1720E0
:101BB000A36A1A0504D52248234903F04DFE1820D4
:101BC0001D4CA36A9B0512D51D48204903F044FE15
:101BD000A36BA26A100409D51D4A1948012103F01C
:101BE0006FFD1EB1A36A23F40043A3621920124CB7
:101BF000A36A590504D51248164903F02DFE1A2090
:101C0000A36ADA050ED50E48134903F025FE1B2002
:101C1000094A936A43F47F43936200232B7070BD9B
:101C20001620C5E7A36A9B04F2D505480B4903F0CB
:101C300013FE1C20ECE700BF00ED00E01377000866
:101C4000D86D0008297700083A7700084D7700081A
:101C5000667700087B77000896770008AE77000863
:101C60002DE9F843804689461746354D35493648B3
:101C700003F0F2FDAB6ADE0627D53449324803F0A3
:101C8000EBFD1124AB6A1D0704D531492E4803F042
:101C9000E3FD12242A4DAB6A980718D52D492A482E
:101CA00003F0DAFD6E6BAB6A190646D52A4A264860
:101CB0003346012103F004FDB9F1000F03D0AB6AF4
:101CC00023F08003AB62132403E01024DAE76FF003
:101CD00015061B4DAB6ADA0704D520491A4803F0F4
:101CE000BBFD1424AB6A9B0604D51D49164803F0BE
:101CF000B3FD1524124B9A6AD50602D49A6A90074E
:101D00000AD55B68190507D54146304600F0C6F98B
:101D100010B180F309880224094B9A6A920642BFE7
:101D20005A6A22F400525A629A6A42F0FF029A6298
:101D300000233B702046BDE8F8836FF01506C2E72C
:101D400000ED00E0DD770008D86D0008F3770008AB
:101D50003A770008267800083E7800085478000892
:101D6000AE7700082DE9F041684B8AB0D3F80480C3
:101D700000AF0446C8F30806002585F31188BFF3B9
:101D80006F8F02F07F43B3F17F4F07D102F00C0356
:101D9000082B12D15E495F4803F05EFD00252C46FA
:101DA0000023FB71F31E092B00F28F80DFE803F0A4
:101DB0000A8588818D8D8D8D8D8B10074CBF0C46CB
:101DC0000125EDE754495348504E03F045FD0023EB
:101DD000FB71F36A9A0705D550494E4803F03CFD64
:101DE00000232DE0F36A002B01DA4D49F5E7F36A91
:101DF0005B00F5D54B49474803F02EFD7369A26996
:101E000043F480737361BFF34F8FBFF36F8F32F86A
:101E1000023C726922F480727261BFF34F8FBFF38C
:101E20006F8F03F47F42B2F55F4F2BD1DBB2022BF1
:101E300028D123683C4A3748012103F041FC23683C
:101E4000FA79DAB907F1080604F1200C2068616814
:101E5000324603C2083464451646F7D17A6A002D2B
:101E600050D0C2F3080121B96FEA52226FEA422230
:101E70007A6207F108011846FFF7B6FD2837BD461C
:101E8000BDE8F081214B9A6AD2B22AB1FA1D012134
:101E90002046FFF7E5FE0EE09A6A12F47F4F04D069
:101EA000F91D0120FFF774FE05E09B6AB3F5803F42
:101EB00096D3FFF719FE0346C2E7FA1D0021E7E7B4
:101EC000F91D0020EEE7194987E7194A194B18F464
:101ED000F87FE8468AB008BF13466A461649CDE93E
:101EE00005134FF40073ADF82030103E134B0796E6
:101EF00042F8103F074800234FF41151FFF792FAC0
:101F0000C5466DE76FF30802B2E700BF00ED00E0E1
:101F1000A1780008D86D0008CC780008E3780008A4
:101F20000479000812790008317900084D79000819
:101F300073780008887800087179000804000001AF
:101F4000044B5A6942F010025A615A6922F00802A1
:101F50005A61704700ED00E0EFF30880EFF309816C
:101F600001B57246FFF7FEFE01BD00BF0A4880F3CF
:101F70000888102080F3118808484FF40461401845
:101F800080F30988EFF314800221084380F314885A
:101F9000BFF36F8F00F04AF8401E0020800C002035
:101FA0001EF0040F0CBFEFF30880EFF30980816986
:101FB00011F8021C0229FFD001B5724603F041FC62
:101FC00001BD00BF40B2002807DB044A41090123DC
:101FD00000F01F00834042F82130704700E100E02C
:101FE00040B20028A8BF00F1604001F10101B8BF74
:101FF000064B4FEA0111ACBF00F5614000F00F0045
:10200000C9B2B4BF195480F80013704714ED00E052
:10201000044B054A23F07F039360BFF34F8FBFF358
:102020006F8F70470000000800ED00E008B5FFF773
:10203000EFFF0B4AD2F8883023F47003C2F88830DF
:10204000EFF3148323F0040383F31488BFF36F8F3B
:10205000FFF7A2FCFFF7ACFC00F0B0F801F07AFD4E
:1020600000ED00E042F8203C009B42F81C3C0A498D
:10207000019B42F8183C029B42F8143C21F00101FC
:102080004FF0807342F8043C42F8081C0023203AC9
:1020900002654367704700BF65190008094A034697
:1020A000906870B113F1160F006E05D0A0F14002D8
:1020B000934205D3834203D2814228BF0020704758
:1020C000002070470809002008B515460B4A0C4B44
:1020D0009060026F1A600E4600F0A0F82C4686F35E
:1020E00009880020034B9847204600210022002346
:1020F000014C20476F5800086519000808090020A6
:1021000000080020014B10221A61704700ED00E02A
:10211000054B5A699B689A421FBF044A536843F0B3
:1021200080535360704700BF0809002000ED00E0B5
:10213000084B9B6883420BD1EFF3058343B1064BF9
:102140005A6842F080525A605A6A22F400425A6237
:1021500004F086B90809002000ED00E014498A68FF
:102160004FF030001044EFF3098C80E8F01F10208E
:1021700080F31288BFF36F8F0E4F4FF000664A69ED
:102180008A603E60106F0C4C2060506F00235367D4
:1021900080F3118804B5104600F040F8BDE8044013
:1021A00002F1300090E8F01F8CF3098870470000BE
:1021B0000809002004ED00E0000800200448002386
:1021C0001021C21801335C2B82F80013F9D170473B
:1021D00000E100E008B5EFF30583064A103B02EB8F
:1021E000C30152F8330049688847BDE80840FFF74B
:1021F0008FBF00BF2C6A00080148006870470000CC
:1022000000080020024B034A0348012100F08AB86D
:102210000000022000000020686F0008036E054ADD
:10222000403B1360044B4021C2E9011310460121D9
:1022300000F082B80408002000000B1508B5034622
:102240001048D0F89020C2F30722013A934207D9F0
:102250000D480E4A012103F033FA6FF0150008BD56
:10226000C0F898300A6822F01F021A4342F01002A8
:10227000C0F89C208A6842F00102C0F8A0201846ED
:10228000EDE700BF00ED00E0D06D000888790008A0
:10229000F0B50E4685B01F4604460025B5420DDA5E
:1022A000606810B397B1431E18420AD0104A114813
:1022B0002B46012103F004FA6FF01502104605B019
:1022C000F0BD1F28F2D921680B42EFD1236801939A
:1022D00003F0E1FAA36801A90343D0B20393FFF727
:1022E000ADFF10F1160FE7D0421C01350C34D5E7D5
:1022F000AE790008D06D0008044B0522C3F8942085
:10230000BFF34F8FBFF36F8F704700BF00ED00E04A
:10231000BFF35F8F024B0022C3F89420704700BFC9
:1023200000ED00E010B5034C01232278FFF7B0FF69
:10233000207010BD3909002008B50B4A002312781F
:10234000FFF7A6FF10F1160F07D0084A0021D2F8B8
:102350009030C3F30723984200DB08BDC2F8980011
:10236000C2F8A0100130F2E73909002000ED00E0CA
:102370002DE9F0435D485E49D0F890300C68C3F316
:1023800007239C4285B000F2AE80FFF7C1FF496889
:102390000022944201F10C011AD1564F564D3C7067
:1023A0006846FFF7D9FA554C554E81464FF0000864
:1023B000C14520D13B784D490020D1F89020C2F38F
:1023C00007229342C0F28980FFF796FF002050E079
:1023D000C0F8982051F80C3C23F01F03134343F03E
:1023E0001003C0F89C3051F8043C43F00103C0F8DE
:1023F000A0300132CDE7009800EB08114FEA081C2D
:10240000CB682340B3F5000F49D00BD8B3F5001FBC
:1024100032D0B3F5800F37D0B3F5801F14D008F158
:102420000108C5E7B3F1007F42D0B3F1805F48D027
:10243000B3F1807FF3D150F80C3088684A6803F01C
:102440002AFA40F0887009E050F80C3088684A6831
:1024500003F021FA40F0885040F43020039001A9A5
:102460003878CDE90123FFF7E9FE002831DA6FF073
:10247000150005B0BDE8F08350F80C3088684A6854
:1024800003F009FA3043E9E750F80C3088684A68ED
:1024900003F001FA40F0C06040F40030DEE750F88D
:1024A0000C3088684A6803F0F6F940F08270D5E78E
:1024B00050F80C3088684A6803F0EDF940F4802049
:1024C000CCE750F80C3088684A6803F0E4F92843F8
:1024D000C4E73B7801333B70A1E7C1F89830C1F8FD
:1024E000A000013369E74FF0FF30C2E700ED00E0E4
:1024F000746F000839090020000002110000F0FF8D
:1025000000000811F0B587B007460E4614460021BA
:10251000102268461D4604F00CF902238DF80230A3
:102520002A46054B019321466846CDE9047602F020
:1025300005FA07B0F0BD00BFB758000808B5024B58
:102540001B689847002008BD10080020034B044A70
:102550001860937843F002039370704710080020CE
:102560001C00002008B50649064821F00701C1F10A
:10257000005202F5003202F052FC002008BD00BFFC
:10258000871E00201408002007B5084A92E80300BF
:10259000CDE9000106488268126822B16946904779
:1025A00003B05DF804FB6FF05700F9E7186E000800
:1025B000C068000800F01F0201213F2808B501FA99
:1025C00002F2034605D90848084A03F079F80020CA
:1025D00008BD074B1F2894BF5B695B6B9A430CBF18
:1025E00001200020F4E700BF906D0008E3790008A7
:1025F0000004014000F01F0201213F2808B501FA44
:1026000002F2034606D90748074A03F059F86FF06B
:10261000150008BD1F28054B02D85A610020F8E7B5
:102620005A63FBE7906D0008E3790008000401405D
:10263000044B1844002301338B4200F8012BFADBD2
:10264000704700BF640000202DE9F041104F05469F
:1026500000264FF001086B78F4B2A34201D8BDE820
:10266000F0812B781C442046FFF7A4FF68B1204678
:10267000FFF7C0FF57F834303BB107EBC40204F05A
:102680001F04516808FA04F098470136E3E700BFD9
:1026900020080020034660B1B0FA80F2C2F11F02A8
:1026A000D2B205498856054A11680B431360FFF7FB
:1026B00089BCFF22F5E700BF640000200004014050
:1026C000024A136823EA00031360704700040140C4
:1026D000032921D8DFE801F0020C10190F4B9A688A
:1026E00022EA00029A60DA6822EA0002DA607047A1
:1026F0000A4B9A680243F5E7084BDA680243DA604E
:102700009A6822EA00029A607047044B9A68024372
:102710009A60DA681043D860704700BF0004014037
:1027200030B5B0B1B0FA80F3C3F11F03DBB20B4890
:1027300050F833408C4204D100EBC3056D689542DC
:1027400005D044B940F8331000EBC30042600020CC
:1027500030BDFF23EBE76FF00F00F9E72008002002
:1027600060B1B0FA80F3C3F11F03DBB2044A002169
:1027700042F8331002EBC30251607047FF23F5E7C4
:102780002008002000F00302043292000F2393403F
:1027900043EA900000F003030233074A52F8232073
:1027A000030C02EA104293FAA3F008B1B0FA80F0E9
:1027B00022FA00F0704700BF0000014038B50B88D6
:1027C000C3F30B030D2B0D46144617D813B96FF046
:1027D000850012E0023B0B2B1BD8DFE803F0350627
:1027E000353331351A1A1A1D28284FF4FA40206063
:1027F0002B68B3F5805F29D2002038BD03F6B8738B
:10280000C3F30B03182BE2D8144A22FA03F3DB07B5
:10281000DDD5134B1868EAE700F0D0F80623B0FBCB
:10282000F3F0552358430723B0FBF3F0DFE700F044
:10283000C5F80623B0FBF3F0552358434008D6E70C
:102840000848D4E70848D2E70020D0E7C3F31333A1
:102850000133B0FBF3F02060CEE700BF110111019E
:102860004400002000366E01006CDC02F8B54F4FCA
:102870004F4C00F0C1F8384603F019F900F096FF0C
:10288000A3684C4AC3F303131578D35C05F01F0506
:1028900003F01F0320FA03F647FA05F5AE4202D211
:1028A000284600F0B9FF236823F4802323602368BF
:1028B00043F48033236023689903FCD5D4F8943023
:1028C00043F00103C4F89430D4F894309A07FBD550
:1028D000D4F8983043F00103C4F89830D4F8983015
:1028E0009B07FBD5A36803F00C030C2B18D12368BE
:1028F000580506D4236843F4807323602368590580
:10290000FCD5A36823F0030343F00103A360A3688D
:1029100003F00C03042BFAD1A36823F0F003A360A7
:10292000236823F08073236023689A01FCD4E36852
:1029300023F4003343F06053E360E36843F48033EF
:10294000E360E36823F4C003E360E36843F48013C7
:10295000E36000F037F8236843F080732360236856
:102960009B01FCD5A36823F0F00343F08003A36030
:10297000A36843F00303A360A36803F00C030C2BCC
:10298000FAD1A368AE4223F0F003A36002D3284635
:1029900000F042FF084B1F60A36823F4E063A360CC
:1029A000A36823F46053A3600020F8BD80FE210AD1
:1029B00000100240D97D0008440000200048704704
:1029C00000366E010A4AD2F8803023F48073C2F8D0
:1029D000803002F5D032074BD1680B4043F4AA4354
:1029E00043F05303D360D36843F08073D3607047E0
:1029F000007000400C80FFF9064B9A6D42F0805247
:102A000082B09A659B6D03F080530193019B02B0E5
:102A1000704700BF0010024008B5074803F0EBFC08
:102A200038B10648FFF792FD0448FEF7FDF9002093
:102A300008BD6FF01200FBE7D8690008412A0008C2
:102A40000A2838B5074D044604D1AB680D215B68F0
:102A500028469847AB6803485B68E1B29847204630
:102A600038BD00BFD86900082DE9F843D0F80490BC
:102A70000746D9F8080090460D461E4602F06FFF43
:102A8000B8F5001F044616D12846D9F80840FFF7CC
:102A900079FE84420CD1294602F061FF0446FFF71B
:102AA0000FFE2046FFF75CFE00212046FFF710FED8
:102AB0000020BDE8F883B8F5800F20D0B6F1806F14
:102AC00019D0B6F1C06F18D0B6F1007F1AD1022626
:102AD0000F493A462046FFF723FEB0B9D9F808104F
:102AE000284602F041FF20463146FFF7F1FD20461F
:102AF000FFF7D0FDDCE70126EAE70326E8E76FF001
:102B00008500D6E76FF01500D3E76FF00F00D0E730
:102B1000DB5B000880B500AF8AB06A46094B0791BD
:102B2000CDE905304FF40073ADF82030064B42F884
:102B3000103F064800234FF41151FEF773FCBD46C9
:102B400080BD00BF347A000804000001B06D0008A9
:102B500008B5044A0448012102F0A9FD6FF0040001
:102B600008BD00BF487A0008B06D0008F7B50446FC
:102B7000436806691C48DD680F4659688368DB684E
:102B8000002201924BB9194A1948012102F08FFD28
:102B90006FF00404204603B0F0BD01AA9847002856
:102BA000F1DB376206F110074FF0FF324FF0FF33D1
:102BB000384601F06BF82B6823F001032B602046A8
:102BC00096F8521003F087F82046019900F04AFA6F
:102BD00096F8513004461BB12B6843F001032B607B
:102BE000384601F01FF8D5E7C0680008667A00088B
:102BF000B06D000870B50446466805694FF0FF32B5
:102C00000021284603F015FC33682046984700232E
:102C100085F8503085F852300122114605F1100038
:102C200003F007FC204600F03FF83169184B994249
:102C300022D015D8174B994220D0174BCB1A5942A6
:102C400059418900204641F01001FFF78FFF041E13
:102C500018DA124A1248012102F029FD204670BDFF
:102C6000104B99420CD003F5C31303F5206399422E
:102C70000CBF0A210021E5E70621E3E70221E1E795
:102C80000821DFE7012385F850300024E6E700BF84
:102C900040420F00A0860100801A0600947A0008C6
:102CA000B06D000840E1330037B5456801AA686996
:102CB000002103F0C9F9041E07DB019B00221979EA
:102CC000186803F0D4F9041E08DA0D4A0D482346AB
:102CD000012102F0F5FC204603B030BD0A486968C6
:102CE00083681B683BB9094A0648012102F0DFFCF2
:102CF0006FF00404EFE7984704460028EBD0F2E7B2
:102D0000C57A0008A06D0008C0680008E37A0008D2
:102D10000F4B984215D008D80E4B984213D00E4B4B
:102D2000C31A58425841800070470C4B98420CD04F
:102D300003F5C31303F5206398420CBF0A2000205B
:102D4000704706207047022070470820704700BF78
:102D500040420F00A0860100801A060040E13300C7
:102D600013B503460846DC6889681AB1E36943F085
:102D70000803E361A369DB031FD40B6898470028AD
:102D800016DA154A1548012102F091FC236843F038
:102D900020032360236843F010032360236843F07B
:102DA00040032360236843F08003236002B010BD1A
:102DB000236843F004032360E8E74B680DF1070143
:102DC0009847002801DA064ADCE79DF80730A3623D
:102DD000236843F00203EEE7137B0008A86D0008A8
:102DE0002C7B0008F8B543680769DC6802460D468D
:102DF00019B96FF015063046F8BDB96D11B1F96D0E
:102E0000002945D197F85310002941D11869FFF7DF
:102E10007FFF01461046FFF7A9FE061E05DA1E4A8F
:102E20001E48012102F043FCE5E7236843F001035B
:102E30002360BB6DE3B9BD652A79EB881849012A87
:102E4000A26805BF43F480630A400A40134318BFD9
:102E500042EA4303A360A36843F40043A360012351
:102E600087F85430236843F0080323600026C2E744
:102E7000FD652B79012BBCD0E368EA886FF34A0328
:102E800043EA4203E360E36843F40043E360E6E7B8
:102E90006FF00F06AFE700BF947A0008A86D000836
:102EA00000F8FFFF2DE9F34143680569DC6895F8F8
:102EB0005420A3690646002A00F0848095F85380C8
:102EC000B8F1000F33D01A077CD502F038FF044662
:102ED000002864D001276F637568D6F81080EA680F
:102EE000D36943F00803D361EA68EFF3118110233B
:102EF00083F31288BFF36F8F536823F4C04353608A
:102F000081F31188BFF36F8F304602F0F9FEEB6852
:102F100000259F6188F85350306902F028FF2A4647
:102F20002146706802B0BDE8F041FFF719BF02F01A
:102F300006FF0546002832D0A36987689B071ED488
:102F4000A36959072ED4A369DA0636D4A3699B0670
:102F50000FD5304602F0D4FE0123A361E36943F0AC
:102F60002003E361BB6928469847636823F4004364
:102F70006360A369180712D501222946D1E7FB68CF
:102F80008DF807800DF1070198479DF80730A3627F
:102F9000002804DA314A3248012102F088FB02B0ED
:102FA000BDE8F081616ABB68C9B298470028F6D0D5
:102FB000636843F400436360F1E7E36943F010039F
:102FC000E361C3E7D90607D5E36943F01003E36182
:102FD0000123AB63A369E2E79A060ED5E36943F0E8
:102FE0002003E3610123A361304602F089FE3069CA
:102FF00002B0BDE8F04102F0BABE5F0709D5EB6C44
:10300000626A1A70AB6C013BAB64EB6C0133EB642E
:10301000E0E7180612D5AA6C6368002AE4D0FF2AFC
:1030200001D96360D6E723F47F0343EA024395F8AE
:103030004020002AF5D123F08073F2E7990703D5E9
:10304000EB6C1B78A362DDE75A06C3D56B6C1B7A69
:103050009B07C9D5636843F48043E2E7457B0008DA
:10306000A86D00082DE9F84F46680369F468D6F8A2
:103070001CA01A6A00254FF00C0BAA450DD1C2F313
:103080004202012A21D0022A4ED02E4A2E48012186
:1030900002F00DFB6FF0150013E0D6F818900BFB53
:1030A00005F809EB08077868FFF732FE504010F08A
:1030B0000E0F08D159F808308B4204D1BB68236148
:1030C0000020BDE8F88F0135D7E741F25C2E4FF4C0
:1030D0007A6C40F2E2474FF4FA761C4B0220421E13
:1030E000B1FBF2F2B3FBF2F2BCFBF2F5013DFF2DB6
:1030F00023D8BEFBF2F808F1FF38B8F1FF0F1CD857
:10310000B6FBF2F9B9F10F0F17D8B7FBF2F2013A9B
:103110000F2A12D8023848EA094343EA007343EA07
:10312000025343EA0523CAE740F2145E4FF4167CCB
:103130004FF4FA7740F27716CFE701301128CED15D
:10314000034AA3E75E7B0008A86D000800CA9A3B0B
:10315000D97B0008012912D0022907D089B900685B
:10316000094BC01A18BF0120000370470068064BC6
:1031700098420CBF4FF400504FF44050704700206D
:1031800070474FF4005070470080004038B51D462E
:10319000094B33F812200023FDF70AF8090241EA2F
:1031A00010616C08000220182A464FF0000341F11C
:1031B0000001FCF7FDFF38BD947000082DE9F043D5
:1031C00083B0436800AFD3F8008006460C46002960
:1031D00040D0586819698368DB686BB13A1D98471D
:1031E000051E0CDA344A3548012102F060FA2846FF
:1031F0000C37BD46BDE8F0836FF05705F2E7304B62
:10320000984548D1D7F80480DFF8B89000252346C8
:10321000AAB240460021FFF7B9FFA0F5407048452B
:103220001BD901350C2DF2D16D468AB033686A4640
:1032300025490794CDE905134FF40073ADF820300C
:10324000224B42F8103F1D4800234FF41151FEF766
:10325000E9F8AD466FF01505C9E7194EF36A23F09A
:103260000F032B43F3621A4B33F815200023194642
:103270004046FCF79DFF002305464FF4807C19462D
:1032800060082246E5FB0C01FCF792FFC0F3130037
:10329000F0600025ABE7D8F8003023F40043C8F80D
:1032A00000307B6803EB5403B3FBF4F30F2BBBD963
:1032B0009BB2C8F80C30ECE7667A0008006E000894
:1032C00000800040FFFC0F001D7C0008040000018E
:1032D000947000082DE9F84306460A79406833697E
:1032E00004681F68012A0D4617D0931ED3F1000908
:1032F00049EB03094FEA89296979FFF72BFF95F814
:103300000680B8F1020F03460AD0B8F1040F01D0CD
:10331000002A59D04FF4805005E04FF4C069EBE724
:10332000002A4ED00020A2F1030CBCF1010F04D8FA
:103330006FF085031846BDE8F88312B1B8F1040FA9
:10334000F6D0B3F5805F41D0B3F5405F40D0002B9D
:103350000CBF012303239942EAD1494602F0DBFE68
:103360008045E5D1EB79C3B1012B33D11B4B9C4296
:1033700013D0A3F574439C420FD003F580639C42A5
:103380000BD003F580639C4207D003F580639C4219
:1033900003D003F540539C42CAD1236823F00103B4
:1033A00023602946304602F06CFF03460028BFD157
:1033B000226842F00102226095E8030087E80300DA
:1033C000B8E74FF08050BCE71046BAE70023C2E7E9
:1033D0000223C0E7032BC9D0AAE700BF0038014091
:1033E0002DE9F04182B044688046606821698368B5
:1033F0001B6800AF73B19847054668B9606A3A1D0B
:10340000002102F021FE051E0EDA28460837BD46CF
:10341000BDE8F0816FF05705594A5A48012102F082
:1034200046F9002DF1DBE9E77B680022197918687D
:1034300002F01DFE051EE8DBD8F80460D8F8103055
:1034400034681D68236823F001032360B06802F02C
:10345000D2FF38B94C4A4B48012102F028F96FF0ED
:103460001205D2E7D6E902018368DB6803B1984709
:1034700054E8003F43F00C0344E80032002AF7D13F
:103480002946404602F0FDFE0546002847D1337E1E
:103490001BB1A36843F00803A360737E1BB163688C
:1034A00043F400436360B37E1BB1636843F480332D
:1034B0006360F37E1BB1636843F400336360337F62
:1034C000002B4AD0314B9C422CD0A3F574439C4234
:1034D00028D003F580639C4224D003F580639C428E
:1034E00020D003F580639C421CD003F540539C42DE
:1034F00018D06C4688B0D8F800306A462449CDE927
:1035000005134FF40073ADF81C30224B42F8103F06
:103510001C4800234FF4E251FDF784FFA5466FF0ED
:10352000150572E7D8F804301A68936843F48043AD
:1035300093602368727F23F0787343EA42532360D9
:103540002368B27F23F4F81343EA02432360F37F36
:103550001BB1A36843F40043A36096F820301BB16D
:10356000236843F000532360236843F00103236082
:10357000E3699A02FCD5E3695B023FF546AFFAE7DF
:10358000347C0008006E0008547C000800380140BC
:103590006F7C0008030000014FF0E0230D4A996999
:1035A000126818699B69002908BF1146002B08BFE3
:1035B000134610F4803F084801D1994205D20168B2
:1035C000114401604FF0E021096900681044C01AFD
:1035D000704700BF0409002000090020094B102299
:1035E00083F82320084B44F268221A60074B00201E
:1035F00018604FF0E02344F267225A610722986175
:103600001A61704700ED00E0040900200009002065
:10361000684620F007018D4619B5FFF7BDFF144B32
:103620001449D3E900420868001942F10002C3E9D5
:103630000002114A00230B60D2E9004144F26823E2
:10364000001BB0FBF3F043431B1941F10001C2E939
:103650000031EFF31181102383F31288BFF36F8FD2
:1036600000F0F6FFFEF754FDBDE8194085467047AF
:10367000A805002000090020A00500202DE9F04148
:10368000364E89B1421C0AD14FF0E022136923F073
:10369000010313614FF07F433360BDE8F08135686B
:1036A000012806DC00240AE0431C3568F8D140F20A
:1036B000D93040F2DA339842A8BF1846441EEFF3DF
:1036C0001187102383F31288BFF36F8FFFF764FF16
:1036D00023494FF0E023D3F818C0D1E90023801824
:1036E00043F10003C1E900031E4B00221A601E4B88
:1036F0001A68831A2DD444F2682E44F2672814FB0A
:103700000E841C44131AB4FBFEF440F226420EFB56
:103710000433934238BF1346144A934228BF1346DA
:103720004FF0E02233609469013B536100239361C1
:10373000A445D1E90032ACEB04000DD20544EB18EE
:1037400042F10002C1E9003287F31188BFF36F8FA5
:10375000A3E740F22643E3E7C318F1E7040900209A
:10376000A805002000090020A00500202882FF00F5
:1037700038B5EFF31185102383F31288BFF36F8FF1
:10378000084B1C68084B1B68E41AFFF705FF85F31C
:103790001188BFF36F8F44F268232044B0FBF3F02D
:1037A00038BD00BFA8050020A0050020174B9A686F
:1037B00002F00C02042A23D09A6802F00C02082AB4
:1037C00020D09A6802F00C020C2A1DD1D968DA6860
:1037D000D868DB6801F00301C3F341630329C2F336
:1037E0000312C0F3062003F101030CBF0849094985
:1037F0005B000132B1FBF2F25043B0FBF3F07047D3
:10380000044870470248704700207047001002408B
:1038100000366E010024F40010B52849284A441EE1
:103820008C421368D2F8802044D803F4C063B3F507
:10383000007F2FD1D20522D403F1016303F5332396
:1038400098422FD81F4B98422ED81F4B98422FD802
:103850001E4B984294BF002001201D4A136823F09C
:103860000F0303431360136803F00F03984223D040
:10387000136803F00F03181A18BF012010BD154B71
:1038800098420FD8144B98420ED8144B98420FD838
:10389000134BDEE7B3F5806F08D1124B984207D87F
:1038A000114BD6E70420D8E70320D6E70020D4E761
:1038B0000220D2E70120E1E70020DFE77FFE210AB6
:1038C000007000408065140600990D0480CC06024B
:1038D00000200240000E2707804A5D050087930301
:1038E00080C3C90100366E01001BB70010B5044645
:1038F000FDF7CAFC0348044A012101F0D8FE204626
:1039000002F084FDD86D0008BC7C00082DE9F84366
:10391000044600AF0D46EFF31188102383F312889D
:10392000BFF36F8F04282A4A98BF2A4B9668117CF0
:1039300094BF53F82030284BE9468AB06A4627489E
:10394000CDE9073140F20133ADF82430244BCDE905
:10395000050442F8103F234800234FF43151FDF78E
:1039600061FDCD4645B1EB69C3F3080323B11E4A9F
:103970001C48012101F09BFE2EB1304602F06EFD85
:1039800008B1037803B91948E9468AB06A46184B6A
:103990000790CDE9053640F20133ADF82030154BE4
:1039A00042F8103F00230F484FF41151FDF73AFD44
:1039B0002946CD462046FFF799FF88F31188BFF3CB
:1039C0006F8F3046FEF7B4FBBD46BDE8F88300BFFD
:1039D0000809002068700008CB7C0008E17C000822
:1039E00005000001D86D0008097D0008D97C000899
:1039F0002A7D00080400000138B50A4B53F8204026
:103A0000013053F82050A54200D838BD606830B16D
:103A1000037EDB0701D402F0D6FC0834F3E7236809
:103A20009847FAE77C70000870B5294B294C2A4D5D
:103A300086B0012203201A70FFF7DEFF0420FFF793
:103A4000DBFF2646AE4204F130040FD300F064FCE5
:103A5000204CAC4226D300F073FCFCF7D5FD1F4A86
:103A6000938923F00103938106B070BD54F80C3C98
:103A7000059354F8103C049354F8143C039354F801
:103A8000183C029354F81C3C019354F8203C0093DA
:103A900054E90A2354E90C0100F054F954F8303C7D
:103AA0005E65CEE7D4E90A23B3F1FF3F08BFB2F168
:103AB000FF3F05D052EA0301206803D100F09AF9D4
:103AC0003034C6E70649183000F0E2FCF8E700BFE2
:103AD0003A0900200C6D00080C6D0008300600202B
:103AE0008365000870B5002386B00122CDE9042368
:103AF000134E144D01930F22CDE9023212491423C3
:103B000003FB005506EBC01604464FF4C07000FBE3
:103B100004110E4B00954FF4A072304600F012F9DC
:103B2000337C0B4AEE6023F0040333744FF40463D8
:103B300004FB033313442C746B6006B070BD00BFEC
:103B4000B005002008090020C01400201D640008F2
:103B5000800C00207FB50020FFF74EFF294B83F338
:103B60000888294C636943F4007363610025F023DE
:103B700084F82230E57725766576A57684F820509E
:103B8000636A43F4E0236362FEF7DAF9FEF7BAFAF8
:103B90004FF0FF33A362E362FEF7EAFBFEF732FB6E
:103BA000FDF7D2FA19481A4C00F018F9FDF76EF932
:103BB0000120FFF721FF0220FFF71EFF00F0A4FB0A
:103BC000144B15495C61154B059301234FF40062BA
:103BD000CDE90353CDE90155114B0095204600F086
:103BE000B1F8237C064623F004032046237402F038
:103BF00090FC2846FFF776FF094A31462046FEF73B
:103C000063FA00BFC014002000ED00E0B006002001
:103C100030060020080900204016002077740008B4
:103C2000293A000870B5EFF31186102383F3128848
:103C3000BFF36F8F0468A0421AD0CCB1D4E9003230
:103C400013605A60237C002523F002032374C4E927
:103C50000055A56004F1180000F0B2FC2046A567ED
:103C600002F057FC31460848BDE8704002F0B7BC8E
:103C7000D0E902329A4218BF0133836086F311887B
:103C8000BFF36F8F70BD00BF3B09002013B5EFF38A
:103C90001181102484F31288BFF36F8F846844B1BC
:103CA000013C846081F31188BFF36F8F002002B064
:103CB00010BD52EA030406D181F31188BFF36F8F60
:103CC0006FF00F00F3E7CDE900230246014800F052
:103CD000A7FAECE73B09002070B50546EFF3118623
:103CE000102383F31288BFF36F8F00232C68A54243
:103CF00018D0BCB1D4E9003213605A60227C002392
:103D000022F00202C4E900332274A36004F1180017
:103D100000F056FC6FF00A03A367204602F0F9FB9F
:103D20000123E3E70022AA6023B986F31188BFF3D9
:103D30006F8F70BD31460248BDE8704002F04FBC45
:103D40003B0900202DE9F043073285B022F007023D
:103D50000E461F461099818100F158037F32C0E959
:103D600016330446002322F03F02042183600174CD
:103D70003F2A0F98A073C4E90633E37306F14009A4
:103D8000A2F1400805D883F31188BFF36F8F08466E
:103D900002DFB51829462046FDF786FE07300E9B48
:103DA00020F00700A066C4E9189802930D9B0193C8
:103DB0002D1A0C9B00932A463B4631462046FEF7BF
:103DC00051F900236365044B9B6803B1DB6EE36626
:103DD000284605B0BDE8F0830809002001230374DC
:103DE00083810023C0E91833C366014B9860704794
:103DF0000809002038B50446EFF31185102383F33A
:103E00001288BFF36F8F037C5B070FD5183000F06B
:103E1000D7FB237C23F004032046237402F088FBA5
:103E200029460548BDE8384002F0D9BB85F3118822
:103E3000BFF36F8F38BD00BF3B090020F0B587B0DE
:103E400000250595109D04950F9D03950E9D0295E7
:103E5000DDE912760D9D01950C9D00950446FFF756
:103E600071FFB6F1FF3F08BFB7F1FF3F05D056EA3B
:103E7000070305D12046FFF7BDFF204607B0F0BD80
:103E80003A46334604F11800014900F001FBF4E71B
:103E900083650008094A93686FF00A019967084929
:103EA00058674B6843F080534B60002383F31188BD
:103EB000BFF36F8F9368986F704700BF08090020A9
:103EC00000ED00E038B590F91020037C002A01468F
:103ED00004DA03F07F03037402F0E3FA0D4D2A467F
:103EE000AB6852F8184F944200D004B9EC688B428A
:103EF00007D01A7CD20604D1DA897F2A01D9A269B7
:103F00002AB1A34202D0204600F060FA23466B613A
:103F100038BD00BF0809002070B590F91020037C5F
:103F2000002A2FDBD9062DD11A4C63F07F032246DD
:103F3000037452F8183FE169934207D1C0E90021A8
:103F40000860E0610FE09942F8D01B68002BF5D0C3
:103F500093F90E6090F90E50AE42F4DD5968C0E955
:103F6000003108605860A569954200D005B9E56840
:103F7000A3681A7CD20606D1DA897F2A03D9AA69F6
:103F80000AB9636170BDAB4202D0284600F01EFA48
:103F90006561F7E708090020034648B9EFF3058299
:103FA00032B9064A51699268914201D0FFF772BF57
:103FB00083F31188BFF36F8F704700BF080900209B
:103FC00038B5184CA168E0690B68814214BF1A46E5
:103FD000002249680B605960A368E1692AB9124A56
:103FE000C3E900210B60E3610AE092F90E5093F9F6
:103FF0000E00854212DD5168C3E900210B60536059
:10400000A569094B9D4200D005B9E568A3689D42AA
:1040100002D0284600F0DAF9656138BD8A42DED068
:104020001268DBE708090020200900202DE9F0478D
:10403000002A027C0CBF4FF010094FF0080919EA62
:10404000020F04460E460F4628D149EA0203D20960
:1040500046D10374B9F1080F48D04FF00008DFF8DB
:10406000F0A0534653F8185F9D4200D00DB9DAF81E
:104070000C50DAF80830AB4202D0284600F0A6F91E
:10408000B9F1100FCAF8145008D0204601F0ECFB2B
:10409000B8F1000F02D02F48FFF7A0FE2C4B9B6811
:1040A000A3424FD1EFF30583002B4BD1A289D20756
:1040B00011D586F31188BFF36F8F83F31188BFF397
:1040C0006F8F0423184602DFEFF31187102383F369
:1040D0001288BFF36F8F3846BDE8F047FFF7DABEAE
:1040E00003F07F03037402F0DCF9B3E7A36813B1B4
:1040F000204602F0DEF904F1180000F061FAA56D27
:1041000004F15808A84511D04FF0000A75B12846AF
:1041100002F0CFF905F1180000F052FAC5F878A0C6
:104120002846FFF7F9FEA56DA845EFD1084B9B681F
:104130009C4292D1EFF30588B8F1000818BF4FF008
:1041400001088CE786F31188BFF36F8FBDE8F08715
:1041500008090020B006002070B50F4D2B4606461A
:1041600053F8184F9C4200D004B9EC68AB681A7C35
:10417000D20604D1DA897F2A01D9A2692AB1A342E1
:1041800002D0204600F022F923466B613046BDE89C
:104190007040FFF701BF00BF0809002070B5EFF3C2
:1041A0001186102383F31288BFF36F8F1A4CA16816
:1041B000E0690B68814214BF1A46002249680B600F
:1041C0005960A368E1692AB9144AC3E900210B6068
:1041D000E3610AE092F90E5093F90E00854216DD74
:1041E0005168C3E900210B605360A5690B4B9D42E8
:1041F00000D005B9E568A3689D4202D0284600F0CA
:10420000E5F865613046BDE87040FFF743BE8A427D
:10421000DAD01268D7E700BF080900202009002083
:10422000F8B5124B0C461146114A98681060DDE94A
:104230000676EFF31182102282F31288BFF36F8F9C
:104240009D68284602F03FF9B6F1FF3F08BFB7F17D
:10425000FF3F06D007493A46334605F1180000F003
:1042600017F92046BDE8F840FFF714BE0809002002
:104270002809002083650008F8B550EA01030646C6
:104280000C4603D102F00BF90020F8BDEFF31187C3
:10429000102383F31288BFF36F8F174D174BA86855
:1042A000186002F047F9A8681549324623461830CD
:1042B00000F0EEF8AB681A7C5F6742F004021A74F3
:1042C0006FF00A029A670F4A536843F080535360B5
:1042D0000446002383F31188BFF36F8FAA68D2E9E5
:1042E0000A12B2F1004F08BF9942CDD102F0BBF9DA
:1042F000201A20EAE070C8E70809002028090020F9
:104300008365000800ED00E0024B03F11802C3E9E9
:104310000622704708090020EFF31181102383F370
:104320001288BFF36F8F054B9A68D37B013BD37321
:1043300081F31188BFF36F8F704700BF0809002019
:10434000EFF31180102383F31288BFF36F8F034BB9
:104350009A68D37B0133D373FFF7FEBE08090020B0
:10436000014B9868704700BF08090020027C12F0DA
:104370001F02034610D10A4988420DD00949086836
:1043800068B1D9897F2909D893F90E20064B1B689B
:104390009A42B8BF0020704700207047104670470F
:1043A000B0050020480000202C090020044BC01A52
:1043B000044BC0105843044B01221A54704700BFED
:1043C00030070020ABAAAAAA3B09002070B50C4B0D
:1043D0000C4C1E7CFFF7CAFF182303FB064405465E
:1043E000204600F0EDF8084B00229A553DB12A46D0
:1043F000EB1720460549BDE8704000F049B870BD94
:1044000008090020300700203B090020AD430008C8
:1044100038B5EFF31185102383F31288BFF36F8F44
:104420000F4B104A9C681068A04206D1FFF7CEFFE0
:1044300085F31188BFF36F8F38BD00211B7C11609D
:10444000094AD35C002BF3D02046FFF78FFF0028EA
:10445000EED0237CDB0601D1FFF7B2FD2046E5E775
:1044600008090020280900203B090020024B186899
:10447000984208BF002070474C000020034B1B6887
:104480000BB9FFF775B90020704700BF3009002055
:10449000B3F1FF3F08BFB2F1FF3F2DE9F84F0446EB
:1044A00099461546984600F081808160EFF31187A8
:1044B000102383F31288BFF36F8FB9F1000FDFF879
:1044C000F4A026DBFFF7DAFF3B4B1A68B2FA82F260
:1044D00045194FEA521249EBE0795219DAE90051D5
:1044E00049F10003C4E904235519064643EB0108CA
:1044F0004FF00109FFF7BAFFDFF8C0E0DEF804A0D3
:104500000346EBB9C4E900EACAF80040CEF804401B
:1045100028E0DAE900126FF001035B1A4FF0FF3177
:1045200061EB02025B1B62EB0902012B72F10001DD
:10453000BCBF01230022C0E904324FF00009D9E7D3
:10454000D3E9041CD4E904208A4270EB0C0B24DA72
:10455000891A5A686CEB0000C3E90410C4E9003200
:1045600014605C60FFF782FF84420ED1124B1B681F
:104570005BB9B9F1000F02D1FFF780FF0646304664
:1045800002F05AF80021FFF779F887F31188BFF39A
:104590006F8F28464146BDE8F88F521A60EB0C0039
:1045A0005345C4E90420ADD01B68AAE70025A846FE
:1045B000EFE700BF48070020300900204C00002032
:1045C000F8B50246EFF31185102383F31288BFF389
:1045D0006F8F016851B3FFF749FF1C4B5B689A422C
:1045E00008D0D1E90434D2E90476DB1944EB06049F
:1045F000C1E90434D2E90031002400264FF000471D
:1046000090420B605960C2E90044C2E9046705D0DA
:10461000002085F31188BFF36F8FF8BDFFF72EFFE1
:1046200002F00AF82146FFF729F8F1E7D0E9041370
:10463000B3F1004F08BF012904D100204FF0004121
:10464000C2E904016FF01500E3E700BF4C00002051
:104650002DE9F84FDFF8BC902F4DC9F80000024655
:10466000FFF704FF0C4601264FF00047D5E900C1D3
:104670004FEAE27858B1D0E904AE524578EB0E0328
:104680001CDABAEB02036EEB0806C0E9043612EB43
:104690000C0241EB0801C5E9002100252846C9F8B4
:1046A000005001F0C9FF2946FEF7E8FF84F31188A6
:1046B000BFF36F8FBDE8F84FFFF7AABE1AEB0C03EC
:1046C00041EBEA71C5E900314FF0000B4FF01008E3
:1046D000D0E9011203680B605960C0E900BBC0E972
:1046E000046784F31188BFF36F8F9047EFF3118451
:1046F00088F31288BFF36F8FFFF7B8FE18B1D0E9C7
:1047000004231343E4D0D9F80020A2EB0A02C9F82D
:104710000020ABE7300900204807002010B5EFF378
:104720001184102383F31288BFF36F8FFFF7A6FE67
:10473000054A0346D2E90001181841EBE37184F3FE
:104740001188BFF36F8F10BD480700202DE9F0419D
:104750000446EFF31187102383F31288BFF36F8FA2
:10476000D0E904234FF00046B34208BF012A05D028
:1047700087F31188BFF36F8FBDE8F081D0E90A5845
:104780006A1C48F10003022A73F1000324D301F0EC
:104790006EFF281848EB0101012871F1000141DB8F
:1047A00001F065FF6FF00203281848EB0101834216
:1047B0006FF000438B413ADB01F059FF6FF00102CB
:1047C0002D1848EB01084FF0FF33521B63EB080331
:1047D00018492046FFF75CFE236B01332363236AED
:1047E00063B187F31188BFF36F8F20469847EFF3CB
:1047F0001187102383F31288BFF36F8F54F8185F6B
:10480000A542B5D0002DB3D0284601F095FE002377
:10481000AB6787F31188BFF36F8F2846BDE8F0417F
:1048200001F077BE6FF001024FF0FF33D0E70022B6
:104830003346CDE74D470008F8B5044616461D46F9
:10484000EFF31187102383F31288BFF36F8FB5F155
:10485000FF3F08BFB2F1FF3F04D187F31188BFF3D8
:104860006F8FF8BDFFF7ACFEDDE906010023C4E958
:104870000A01236332462B4620460249FFF708FE11
:10488000EBE700BF4D47000870B50546EFF3118414
:10489000102686F31288BFF36F8FFFF791FE20B1C9
:1048A00084F31188BFF36F8F70BD6B6A63B184F3BB
:1048B0001188BFF36F8F6B6A28469847EFF3118416
:1048C00086F31288BFF36F8F05F1180001F071FEB7
:1048D0000028E5D001F01DFE21460248BDE87040E9
:1048E00001F07DBE3C0900200CB430B58BB004460D
:1048F0000D462022002102A801F01BFF02238DF8A3
:104900000A30002D0C4B0393069412DB01D06B1E72
:104910001C440FAA0E99079402A8019200F00EF809
:1049200015B1069B00221A700BB0BDE8304002B0F2
:1049300070470024EDE700BF096800082DE9F04F3B
:104940008BB04368009383789C078046924640F181
:10495000F98000250878002800F0F68025280AD084
:104960004B1C019301354146009B98470028C0F23B
:10497000E3800199EEE74E788B1C252E0193F1D050
:104980000027B9463C460A221F2C22D8A6F1200354
:10499000102B20D8DFE803F0141F1F1A1F1F1F0B56
:1049A0001F1F1F121F171F1F090044F00104019B46
:1049B00013F8016B0193002EE6D13AE044F00204B3
:1049C00044F00404F3E744F00804F0E744F0100472
:1049D000EDE77F2C24D8A6F13003092B08D8600618
:1049E0004EBF02FB073702FB093944F02004DEE723
:1049F0002A2E0DD161065AF8043B53D4002BA7BFD1
:104A000044F020049946C3F1000944F02804CEE79D
:104A10002E2E05D1630600F1978044F04004C6E7CE
:104A20006C2E2ED028D8682E32D06A2E37D04C2E3D
:104A300035D0002F46F02003B8BF24F04004A3F186
:104A40006502BCBFA4B20027022A01D9612B2BD179
:104A50000AF1070A2AF0070A9C4E0AF1080A0727FA
:104A6000210760D506EB070B34465C455DD1AE1BD4
:104A7000A219A9EB070959E1742E98D07A2E96D085
:104A8000D7E7260648BF44F4007444F080048EE75C
:104A9000E00548BF44F4007444F4807487E744F4AC
:104AA000207484E71F4682E7A6F16302122A00F20F
:104AB000D880DFE812F013004D00D600D600D600F3
:104AC000D6004D00D600D600D600D600D600E800AD
:104AD000D100D600D6001A00D600A0005AF8043B38
:104AE0008DF81030012704AEBAE75AF8046B784B02
:104AF000002E08BF1E4614F0400F14BF39464FF079
:104B0000FF31304601F01DFE0746A9E7009B4146F4
:104B10002020984700280FDB013CA742F6D34D44E4
:104B20002D1BA1469EE74C46F7E714F8010B009BAE
:104B300041469847002898DA98F8023043F0040379
:104B400088F802304FF0FF3528460BB0BDE8F08FF3
:104B5000220630D5A3052AD50AF1070A2AF0070351
:104B60009A4659685AF8080B24F0100B00291FFACE
:104B70008BFB2FDA404261EB41014BF4806B04ACBC
:104B80000A23224601F0E9FD1BF0400FA0EB0402CE
:104B900000F08E802BF001049742A4B240F38F8086
:104BA000002E40F08E802BF01104A4B21DE05AF8C4
:104BB000040BC117D8E7E0055AF8041B01D40846D6
:104BC000F7E7A2054BBF48B208B241F3C01141F369
:104BD000C031C9E750EA0103D1D16306CFD5002F18
:104BE000CDD124F01104A4B23A463B4640F206412E
:104BF0000C4262D124E024F01004A4B20A2314F081
:104C0000800243D014F400711FBF0AF1070A2AF092
:104C100007029246516814BF5AF8080B5AF8040B61
:104C200050EA01023ED124F0160B62061FFA8BFBFC
:104C30003CD5002F3AD124F01704A4B23A463B46A3
:104C400021075AD4E10705D5994572DDA9EB030385
:104C50009F184B469B464AE044F0100410237826E8
:104C6000CDE7782B04D1C6F1780343F01003C6E7F3
:104C7000009B4146252098470028FFF65DAF02358E
:104C80004146304670E608230026B8E714F48071E8
:104C90005AF8040BC4D014F400711ABFC0B2114604
:104CA00080B2BDE724F006041FFA84FB04AC68E779
:104CB00013465C46E10699D52EB90133C0E7134689
:104CC000F8E73B46F6E70233BAE700BF967D0008F7
:104CD0008F7D0008CDE902324146009B2020984795
:104CE0000028FFF629AFDDE902320BF1010BD945AF
:104CF000F0DCEB1A03EB0B055B46E10627D5CDE9AB
:104D000002324146009B302098470028FFF614AF3E
:104D1000DDE902327EB901352F44791B8A4229DB55
:104D2000144604AE9CBB2A44A9EB030915469144E2
:104D300042E017468EE7CDE9023202354146304661
:104D4000009B98470028DDE90232E5DAF4E640F2FC
:104D500006410C42E0D014F0020F14BF2B2020209B
:104D600014F4806FCDE9023205F10105414618BF08
:104D70002D20E5E7CDE902324146009B30209847DF
:104D80000028DDE9023205F10105C6DAD4E6013C6E
:104D9000CDE90232305D009B414698470028DDE9AD
:104DA0000232BFDAC8E6009B41462020984700281F
:104DB00005F10105FFF6C0AEA9EB0503002BF2DCFF
:104DC000D7E500BF704700EBC1004088400870473E
:104DD000F8B50346FFF7F7FFB0FA80F0C0F11F0007
:104DE00003EB800CCA00DCF81060171D0C4606327D
:104DF0008DB256B9012101FA00F0D9680143D9609A
:104E0000CCF81040DD539D52F8BDF1000431585AE2
:104E1000D85303EBC0009E52C5805D52F4E7043ABC
:104E20002DE9F843CC1D114424F0070421F00706B6
:104E3000A6EB04084FEAD807B7FA87F2C2F12405B7
:104E4000AD004FF000090735C2F12002ED08046003
:104E50004946A760C4F80C90920004F1100001F0DC
:104E600068FCAAB2530043F0010363807B1B9BB232
:104E700004EBC5015800A4F80090488024F83520C0
:104E8000A6F8029024F8083004EBC70329465A8894
:104E900042F001025A802046BDE8F843FFF798BF70
:104EA0002DE9F04706460D46174698462BB398F86D
:104EB000004093F80190DB78A40004EB430498F8D9
:104EC00002301C4444444FF0000ACA4509D3D8F8C4
:104ED000042008F1080339463046AC46BDE8F047E7
:104EE000604714F8013B48F823402046FBF77AF965
:104EF000013004440AF1010AE7E76FF01500BDE84C
:104F0000F08730B502460024002012F8013B43B17F
:104F100078B18C4207D1702B04D0A3F140053A2D13
:104F200007D8002030BDA3F140053A2D01D8013447
:104F3000EAE7252B08BF80F00100E6E70020704774
:104F40000FB407B504A951F8040B019100F02CFB34
:104F500003B05DF804EB04B0704710B50369024676
:104F600013F0080009D11368D4689C4297BF126AF5
:104F7000E31AD31A01200B6010BD00231846FAE78C
:104F800013B501A90446FFF7E8FF20B1019BE268D1
:104F9000013B13440193206A019BC01A013802B0FF
:104FA00010BD10B5044650182269236AD20702D5F5
:104FB000013B184010BD984228BFC01AFAE710B54F
:104FC00004460A46C168FFF7ECFF2369E06023F05E
:104FD0000803236110BD38B50D46C2698B00016816
:104FE00043F0020342F82130044601682A46FFF7E5
:104FF000D8FFE36861682060984202BF236943F0EC
:10500000080323612A462046FFF7CBFF606038BDC6
:105010002DE9F74FD0F80CB0C669009216F82B2096
:1050200002F00302022A08BF56F82B209A4606EB2C
:105030008B030F4601934FF00001009B0CBFC2F39E
:105040009D09894619600446CAF80010B9F1000F9D
:1050500007D04946FFF7B3FFE368A3604FF00108AC
:1050600004E001698A0705D44FF00008404603B008
:10507000BDE8F08F816906EB8B00884716F82B108E
:1050800011F001080546EFD08B071DD51FB1394639
:105090002046FFF7A0FF61682A462046FFF781FF00
:1050A000D4E902138B42606007D12A462046FFF7FD
:1050B00078FF4FF000080146A0602369216043F0AB
:1050C0000803E1602361D1E701462046FFF777FF3F
:1050D000E168A1601FB12068E16941F82090EA19F8
:1050E000CAF8002021682046FFF75BFF2269206094
:1050F00042F00802226116F82B2022F0010206F885
:105100002B20DDE900321A60A8E770B50446154689
:10511000FFF747FF2368834205D12369216023F00D
:105120000803236170BDE269AB0043F0020342F85B
:105130002130204661682A46FFF733FF6060F1E7BF
:1051400038B503695B07044606D5456AFFF718FFC3
:1051500085422CBF6562606238BD38B50D46044695
:105160001C22002101F0E5FAEB68A361AB686361E2
:105170002B68E3616B682362002262622A6923B1B3
:10518000591E194208BF42F001022261012204F1B6
:1051900028000021BDE8384001F04BB92DE9F04F5F
:1051A0009846036A87B000258B4204460E46934614
:1051B00003950595AA4638D3EFF31189102383F39D
:1051C0001288BFF36F8F059A2AB129462046FFF750
:1051D0009CFF0023059304A92046FFF7BEFE049917
:1051E000B14207462AD32268E36913F8221021F05E
:1051F000030103F8221003EB820A2168324620469D
:10520000FFF7CFFEE3682060984212D0002789F3B1
:105210001188BFF36F8F039929B162690AB12046E3
:10522000904700230393002FC6D1504607B0BDE836
:10523000F08F236943F008032361E7E718B12046A4
:10524000FFF7C9FEE3E75BEA08031CD0019101F018
:10525000FCF80199B8B9B9F1000F14D189F311889C
:10526000BFF36F8F5A46434604F12800FEF70EFD48
:10527000EFF31189102383F31288BFF36F8FB0FA15
:1052800080F77F09C3E705AB03AA20462568FFF72F
:10529000BFFE0746BBE770B50446836908460D4666
:1052A00098470246EFF31186102383F31288BFF369
:1052B0006F8F2B7843F001032B7061682046FFF756
:1052C00070FE60602046FFF73BFF86F31188BFF356
:1052D0006F8F70BD2DE9F843044600271026EFF3C9
:1052E000118586F31288BFF36F8F2369A2681907AF
:1052F00002D46368934200D2236A9B1A002B42D0E7
:10530000E06910F8221011F0030300EB82093AD093
:10531000022B04D150F822305FEA930805D1CB0765
:1053200020D4A369484698478046A1684246204653
:10533000FFF737FE0127A06041462046FFF73FFEFA
:105340003B4685F31188BFF36F8F002BC7D137B170
:10535000B9F1000F03D104F12800FEF763FC4846C1
:10536000BDE8F88341F0020100F822104846A36925
:10537000D4F808809847414602462046FFF711FEC0
:105380000023A060DDE79946DBE7F8B504468369B2
:1053900008460D4698470646EFF31187102383F31E
:1053A0001288BFF36F8F2B7823F001032B702369D2
:1053B0009B0705D5E268E36903EB82039D421AD19E
:1053C0002B7823F002032B70D4E90231994204D1E7
:1053D00032462046FFF7E5FDA06031462046FFF744
:1053E000EEFD87F31188BFF36F8F04F12800BDE84D
:1053F000F840FEF717BC2B6860F39F032B60F0E7C3
:10540000EFF31181102383F31288BFF36F8F0269CA
:105410008368120702D442689A4200D2026AD31A01
:1054200081F31188BFF36F8F181E18BF01207047DA
:105430007047F0B5406802F4C0454468B5F5804F48
:105440004FF0010000FA01F074D10729C2F343259F
:105450005AD890FAA0F3B3FA83F3266A9B000F2779
:1054600007FA03F326EA030690FAA0F3B3FA83F3EC
:105470009B0005FA03F3334323626568C2F3C0332C
:105480008B4025EA00010B43636090FAA0F1B1FA6A
:1054900081F1A5680326490006FA01F125EA010514
:1054A00090FAA0F1B1FA81F1C2F3014349008B40B7
:1054B0002B43A36090FAA0F1B1FA81F1E5684900AD
:1054C00006FA01F125EA010590FAA0F1B1FA81F19D
:1054D000C2F3814349008B402B43E36090FAA0F371
:1054E000B3FA83F3216890FAA0F05B00B0FA80F081
:1054F00006FA03F34000C2F3413221EA030382407B
:105500001A4322600020F0BD030A93FAA3F6B6FA0C
:1055100086F6676A93FAA3F3B6004FF00F0CB3FA5E
:1055200083F30CFA06F69B0027EA06069D403543F6
:105530006562A2E7B5F5005FA7D16668C2F3C03522
:1055400005FA01F126EA000529436160002B9CD091
:10555000D3024CBFA061A06297E703785B075FBFEF
:1055600003684288C3F34A2303EB12105DBF173070
:1055700020F0070080080020704700207047034695
:10558000BFF35B8F53E8000F421C43E80021002962
:10559000F8D1BFF35B8F704708B501F068F80A22B5
:1055A0000023FAF705FE08BD1FB50023CDE902016F
:1055B000CDE900331A4619461846FBF7B3FF05B08C
:1055C0005DF804FB0120FBF765BD002070474368D0
:1055D000DA7143681960436801225A71FBF74CBDC8
:1055E00070B515460C4669B1D2E901369B1B99424C
:1055F0000AD813680A460146981901F08CF8AB687E
:105600002344AB60204670BD6FF01B00FBE770B514
:105610000E4615461946044618B9BDE87040FBF71A
:1056200039BD33B1C2F34A231030120D184401F0D2
:1056300072F8C4E900562046BDE87040FBF7D2BEC0
:105640002DE9F3415F1C4FEA8708064608F1170071
:1056500020F0070080080C461546FBF79DFD00234F
:10566000ADF805308DF807308DF8047068B1034649
:10567000019A43F8102FA8F104012A46294452F850
:10568000045B43F8045F8A42F9D1A20102F4E0729C
:1056900042EA482222F07F4222F47002002322F0E4
:1056A0003F02314602B0BDE8F041FFF7B0BF07B599
:1056B0000123019201AAFFF7C3FF03B05DF804FBC9
:1056C00007B5CDE9002302236A46FFF7B9FF03B00F
:1056D0005DF804FBF8B506460D4614461F4604B9AE
:1056E000F8BD214628463A46B047241A0544F6E755
:1056F00010B5426881680446D2E900230068FFF7CC
:10570000E9FF636800221A6010BD38B54B681A685B
:10571000CB689A4205460C4602D10846FFF7E8FFDF
:105720006368BFF35B8F53E8002F511C43E8001000
:105730000028F8D1BFF35B8FA3689D54002038BDCB
:105740000A2838B504460D4602D10D20FFF7DDFFCB
:1057500029462046FFF7D9FF002038BD2DE9F04348
:10576000054689B008460E8891F80090D1F8088067
:105770000C461746FBF728FF011EC6F38216C9F335
:10578000C2091FDB4846FBF73FFE034621466088FF
:1057900051F8102B0296C2F34A22002A01EB0204B0
:1057A000C0F30B1008BF00210022CDE90507CDE9A9
:1057B0000314CDE9002241462846FBF731FF09B02A
:1057C000BDE8F0830023E1E743681B685B680020C5
:1057D0001961704743681B681A68526853607047C4
:1057E0002DE9F04143681B685A68012111751D6855
:1057F000D5E90136D3E900482F681CB96B681C60F5
:10580000BDE8F081214630464246B847241A064496
:10581000F3E743681B681868FCF74AB870B543683B
:105820001D686B6818690C46FBF710FC214603469F
:105830000F222868BDE87040184700F07ABF00F0DA
:105840006ABF01460068FCF7CFB808B5FCF728F935
:10585000BDE80840FCF75CBC0A460121FFF727BF02
:1058600000210120FCF7C0B86FF08500704761B6D9
:1058700062B680F31188BFF36F8F704772B6002352
:1058800083F31188BFF36F8FBFF34F8F30BF62B6C2
:10589000BFF36F8F7047202809D9B0F1004F08D8A7
:1058A0000138B0FA80F0C0F11F00400070470820B6
:1058B00070473E20704708B5D1E904319847002071
:1058C00008BD08B5FCF73AFE002008BD08B5062261
:1058D00001210020FCF7ACFE002211460620FCF757
:1058E0007FFB012108460722FCF7A2FE0022114699
:1058F0000720FCF775FB082201210220FCF798FE27
:10590000002211460820FCF76BFB0922012103202D
:10591000FCF78EFE002211460920FCF761FB0A22EB
:1059200001210420FCF784FE002211460A20FCF726
:1059300057FB052108461722FCF77AFE0022114684
:105940001720FCF74DFB282206210A20FCF770FEE9
:10595000002211462820FCF743FB002008BD01F07F
:105960001F0101208840704700F0030204329200BA
:105970000F23934043EA900000F0030310B59B000F
:1059800003F1804303F58033020C9C6892FAA2F283
:1059900024EA10400AB1B2FA82F2914001439960C0
:1059A00010BD0B88C3F30B0303F6B872C2F30B02EE
:1059B000182A82B014D803F1804303F504334868F1
:1059C0001A6802431A600B88C3F30B0303F1804388
:1059D00003F5043300201B680193019B02B070475C
:1059E0006FF08500FAE70B88C3F30B0303F6B87278
:1059F000C2F30B02182A9FBF03F1804303F504335F
:105A000049681A689DBF8A4300201A606FF08500BC
:105A100070470D2809D843F66A73C34013F0010F8D
:105A20000CBF6FF08500002070476FF08500704755
:105A300070B508884A68C0F30B0094B2C2F30445FD
:105A4000FFF7E7FFA0B9FF2A11D004F18041C2F3AC
:105A5000415601F5043101360123B3400C68013B86
:105A6000AB40120E24EA0303AA4013430B6070BD3F
:105A70006FF08500FBE70888C0F30B0008B500F65F
:105A8000B873C3F30B03182B0AD800F1804000F55C
:105A900004304B68026893430CBF0220012008BD0C
:105AA000FFF7B7FF00280CBF02200120F7E770477F
:105AB00043685B681B690B600020704743685B6844
:105AC000586942400A4042405A610020704743688A
:105AD0005B6800209961704743685B6800209962A9
